:100000000C9434000C9451000C9451000C94510049
:100010000C9451000C9451000C9451000C9451001C
:100020000C9451000C9451000C94B4000C945100A9
:100030000C9451000C9495000C9451000C945100B8
:100040000C9451000C9451000C9451000C945100EC
:100050000C9451000C94D3000C9451000C9451005A
:100060000C9451000C94510011241FBECFEFD8E026
:10007000DEBFCDBF11E0A0E0B1E0ECEBFBE002C0E1
:1000800005900D92AC33B107D9F721E0ACE3B1E0B4
:1000900001C01D92A935B207E1F70E9450010C94EE
:1000A000DC050C9400009091C00095FFFCCF80937C
:1000B000C60080E090E008958091C00087FFFCCFEB
:1000C0008091C60090E0089587E690E09093C50087
:1000D0008093C40088E18093C10086E08093C200D1
:1000E000089581E390E0909387008093860080E8F4
:1000F0008093800084E180938100219AEFE6F0E014
:10010000808181628083089580E480937C0083E015
:1001100080937E00EAE7F0E087E08083808180685A
:10012000808380818860808308951F920F920FB62C
:100130000F9211248F93EF93FF9381E480937C00BF
:10014000EAE7F0E080818064808381E080933D0174
:1001500010923C0110923E01FF91EF918F910F9010
:100160000FBE0F901F9018951F920F920FB60F920F
:1001700011248F93EF93FF9381E480937C00EAE74F
:10018000F0E080818064808310923D0181E0809363
:100190003C0110923E01FF91EF918F910F900FBEA5
:1001A0000F901F9018951F920F920FB60F92112467
:1001B0002F933F934F935F936F937F938F939F936F
:1001C000AF93BF93EF93FF9380913D018823A1F0FC
:1001D000609178007091790080E090E00E940302C5
:1001E00020E030E44CE950E40E9469020E94D4010E
:1001F000709342016093410180913C018823A1F0FA
:10020000609178007091790080E090E00E94030294
:1002100020E030E44CE950E40E9469020E94D401DD
:100220007093400160933F0180913E01811120C095
:1002300080E480937C0080917A00806480937A00CF
:1002400081E080933E0110923D0110923C01FF91AC
:10025000EF91BF91AF919F918F917F916F915F913E
:100260004F913F912F910F900FBE0F901F901895B7
:10027000E0917800F09179000024EE0FFF1F001C40
:10028000EE0FFF1F001CEF2FF02DEE0FFF1FE050B1
:10029000FF4F808191819093890080938800D7CF10
:1002A00087E690E09093C5008093C40088E1809336
:1002B000C10086E08093C20085E491E023E530E050
:1002C00030934E0120934D012CE530E030935001E6
:1002D00020934F0123E02093480110925201109285
:1002E0005101909358018093570190935601809348
:1002F0005501909354018093530181E390E09093D2
:1003000087008093860080E88093800084E180935A
:100310008100219A80916F00816280936F0080E458
:1003200080937C0020937E0087E080937A00809108
:100330007A00806880937A0080917A008860809348
:100340007A00789483B7817F83BFC0E2D1E083B71E
:10035000816083BF889583B78E7F83BF80913F0183
:10036000909140011F921F929F938F938091410122
:10037000909142011F921F929F938F93DF93CF938F
:100380000E94FE029FEF23ED80E3915020408040C9
:10039000E1F700C000008DB79EB70A960FB6F8943B
:1003A0009EBF0FBE8DBFD3CF0E94480288F09F57DB
:1003B00098F0B92F9927B751B0F0E1F0660F771F89
:1003C000881F991F1AF0BA95C9F714C0B13091F07F
:1003D0000E946202B1E008950C946202672F782FA8
:1003E0008827B85F39F0B93FCCF386957795679544
:1003F000B395D9F73EF490958095709561957F4FB0
:100400008F4F9F4F0895E89409C097FB3EF4909555
:100410008095709561957F4F8F4F9F4F9923A9F0DD
:10042000F92F96E9BB279395F6958795779567956C
:10043000B795F111F8CFFAF4BB0F11F460FF1BC0B0
:100440006F5F7F4F8F4F9F4F16C0882311F096E943
:1004500011C0772321F09EE8872F762F05C06623F1
:1004600071F096E8862F70E060E02AF09A95660FAA
:10047000771F881FDAF7880F9695879597F9089563
:1004800057FD9058440F551F59F05F3F71F0479545
:10049000880F97FB991F61F09F3F79F0879508952A
:1004A000121613061406551FF2CF4695F1DF08C049
:1004B000161617061806991FF1CF86957105610566
:1004C00008940895E894BB2766277727CB0197F90E
:1004D00008950E947C020C94ED020E94DF0238F025
:1004E0000E94E60220F0952311F00C94D6020C94A1
:1004F000DC0211240C9463020E94400270F3959F69
:10050000C1F3950F50E0551F629FF001729FBB270A
:10051000F00DB11D639FAA27F00DB11DAA1F649FA6
:100520006627B00DA11D661F829F2227B00DA11D59
:10053000621F739FB00DA11D621F839FA00D611DDF
:10054000221F749F3327A00D611D231F849F600D00
:10055000211D822F762F6A2F11249F5750409AF029
:10056000F1F088234AF0EE0FFF1FBB1F661F771FB5
:10057000881F91505040A9F79E3F510580F00C9480
:10058000D6020C9463025F3FE4F3983ED4F3869561
:1005900077956795B795F795E7959F5FC1F7FE2B20
:1005A000880F911D9695879597F9089597F99F67FC
:1005B00080E870E060E008959FEF80EC08950024EB
:1005C0000A941616170618060906089500240A94B8
:1005D00012161306140605060895092E0394000C3E
:1005E00011F4882352F0BB0F40F4BF2B11F460FFCD
:1005F00004C06F5F7F4F8F4F9F4F0895A0E0B0E022
:10060000E4E0F3E00C94B505AE014B5F5F4FFA01F7
:1006100061917191AF0180915501909156010E94B5
:100620001403E2E00C94D105ABE0B0E0EAE1F3E0C2
:100630000C94A5056C017B018A01FC0117821682CE
:10064000838181FFCCC1CE0101963C01F6019381EB
:10065000F70193FD859193FF81917F01882309F430
:10066000BAC1853239F493FD859193FF81917F0161
:10067000853229F4B60190E00E940B05E7CF912C5A
:10068000212C312CFFE1F315D8F08B3279F038F4BE
:10069000803279F08332A1F4232D20611DC08D3288
:1006A00061F0803369F4232D216016C0832D8260B0
:1006B000382EE32DE4603E2E2AC0F32DF8601DC0D5
:1006C00037FC2DC020ED280F2A3040F08E32B9F4CF
:1006D00036FC81C1232D2064322E19C036FE06C09F
:1006E0008AE0989E200D1124922E11C0EAE02E9EE1
:1006F000200D1124222EF32DF0623F2E08C08C36DF
:1007000021F4832D8068382E02C0883641F4F70129
:1007100093FD859193FF81917F018111B3CF982F34
:100720009F7D9554933028F40C5F1F4F9FE399836E
:100730000DC0833631F0833771F0833509F059C02D
:1007400021C0F801808189830E5F1F4F8824839424
:10075000912C530113C02801F2E04F0E511CF801F7
:10076000A080B18036FE03C0692D70E002C06FEF3B
:100770007FEFC5010E9400054C018201F32DFF7738
:100780003F2E16C0280122E0420E511CF801A08025
:10079000B18036FE03C0692D70E002C06FEF7FEFBD
:1007A000C5010E94F5044C01F32DF0683F2E820133
:1007B00033FC1BC0822D90E088169906B0F4B60178
:1007C00080E290E00E940B052A94F4CFF50137FCFB
:1007D000859137FE81915F01B60190E00E940B0583
:1007E00021102A9421E0821A91088114910471F752
:1007F000E8C0843611F0893641F5F80137FE07C0AC
:1008000060817181828193810C5F1F4F08C060817C
:100810007181072E000C880B990B0E5F1F4FF32D73
:10082000FF763F2E97FF09C0909580957095619552
:100830007F4F8F4F9F4FF0683F2E2AE030E0A3019B
:100840000E944705882E861845C0853731F4232D30
:100850002F7EB22E2AE030E025C0932D997FB92E4D
:100860008F36C1F018F4883579F0B5C0803719F0AB
:10087000883721F0B0C0E92FE061BE2EB4FE0DC074
:10088000FB2DF460BF2E09C034FE0AC0292F26605C
:10089000B22E06C028E030E005C020E130E002C002
:1008A00020E132E0F801B7FE07C0608171818281EA
:1008B00093810C5F1F4F06C06081718180E090E0E2
:1008C0000E5F1F4FA3010E944705882E8618FB2D3F
:1008D000FF773F2E36FE0DC0232D2E7FA22E8914CA
:1008E00058F434FE0BC032FC09C0832D8E7EA82E36
:1008F00005C0B82CA32C03C0B82C01C0B92CA4FE91
:100900000FC0FE01E80DF11D8081803321F49A2D86
:10091000997EA92E09C0A2FE06C0B394B39404C068
:100920008A2D867809F0B394A3FC11C0A0FE06C0FE
:10093000B21488F4280C922C9B180EC0B21460F4E8
:10094000B60180E290E00E940B05B394F7CFB21499
:1009500018F42B1802C0982C212CA4FE10C0B6014C
:1009600080E390E00E940B05A2FE17C0A1FC03C02B
:1009700088E790E002C088E590E0B6010CC08A2DBF
:10098000867859F0A1FE02C08BE201C080E2A7FC8C
:100990008DE2B60190E00E940B05891438F4B6018F
:1009A00080E390E00E940B059A94F7CF8A94F301BC
:1009B000E80DF11D8081B60190E00E940B058110C9
:1009C000F5CF222009F442CEB60180E290E00E94E9
:1009D0000B052A94F6CFF6018681978102C08FEF2E
:1009E0009FEF2B96E2E10C94C105FC01059061504C
:1009F00070400110D8F7809590958E0F9F1F089535
:100A0000FC016150704001900110D8F780959095DD
:100A10008E0F9F1F08950F931F93CF93DF93FB01BA
:100A2000238121FD03C08FEF9FEF2CC022FF16C052
:100A300046815781248135814217530744F4A081B0
:100A4000B1819D012F5F3F4F318320838C9326819D
:100A500037812F5F3F4F3783268314C08B01EC0112
:100A6000FB010084F185E02D0995892BE1F6D80181
:100A700016968D919C911797019617969C938E933D
:100A80001697CE01DF91CF911F910F910895FA0132
:100A9000AA27283051F1203181F1E8946F936E7FBD
:100AA0006E5F7F4F8F4F9F4FAF4FB1E03ED0B4E0AE
:100AB0003CD0670F781F891F9A1FA11D680F791FEF
:100AC0008A1F911DA11D6A0F711D811D911DA11D00
:100AD00020D009F468943F912AE0269F1124301910
:100AE000305D3193DEF6CF010895462F4770405DAB
:100AF0004193B3E00FD0C9F7F6CF462F4F70405D5A
:100B00004A3318F0495D31FD4052419302D0A9F7B4
:100B1000EACFB4E0A6959795879577956795BA95AE
:100B2000C9F700976105710508959B01AC010A2E74
:100B300006945795479537952795BA95C9F7620F4B
:100B4000731F841F951FA01D08952F923F924F92EF
:100B50005F926F927F928F929F92AF92BF92CF924D
:100B6000DF92EF92FF920F931F93CF93DF93CDB756
:100B7000DEB7CA1BDB0B0FB6F894DEBF0FBECDBFCE
:100B800009942A88398848885F846E847D848C849F
:100B90009B84AA84B984C884DF80EE80FD800C81A8
:100BA0001B81AA81B981CE0FD11D0FB6F894DEBF8B
:0C0BB0000FBECDBFED010895F894FFCFFB
:100BBC0000000500070009000B000D000F001100DC
:100BCC001400160018001A001C002000230031002D
:100BDC005550202D3E20256C756D5620444F574E98
:0C0BEC002D3E20256C756D560D0A000092
:00000001FF
