:100000000C9434000C943E000C943E000C943E0082
:100010000C943E000C943E000C943E000C943E0068
:100020000C943E000C943E000C943E000C943E0058
:100030000C943E000C943E000C943E000C943E0048
:100040000C943E000C943E000C943E000C943E0038
:100050000C943E000C943E000C943E000C943E0028
:100060000C943E000C943E0011241FBECFEFD8E04C
:10007000DEBFCDBF0E945A000C94A4000C94000077
:100080002D9A08952D980895833614F48F5F08955E
:1000900080E008951C9B02C080E008958FE99FE0F6
:1000A0000197F1F700C0000083B18295817091E063
:1000B00089270895CF93DF93CDB7DEB7C456D10912
:1000C0000FB6F894DEBF0FBECDBF14B82C9A259A98
:1000D000AE014F5F5F4F84E6DA011D928A95E9F722
:1000E00080E090E031E0FA01E80FF91F2081211152
:1000F00019C02D98FA01E80FF91F1082AFE3BCE98F
:100100001197F1F700C000001C9B14C083367CF4EB
:100110008F5F082E000C990BFA01E80FF91F208160
:10012000222339F32D9A20812111E4CFE2CF80E000
:1001300090E0D9CFAFE9BFE01197F1F700C0000020
:0C0140001C99E4CF3083E2CFF894FFCF8D
:00000001FF
