:100000000C9434000C9451000C9451000C94510049
:100010000C9451000C9451000C9451000C9451001C
:100020000C9451000C9451000C9451000C9451000C
:100030000C9451000C9451000C9451000C945100FC
:100040000C947F000C9451000C9451000C945100BE
:100050000C9451000C9451000C9451000C945100DC
:100060000C9451000C94510011241FBECFEFD8E026
:10007000DEBFCDBF11E0A0E0B1E0EAE9FCE002C0E4
:1000800005900D92A633B107D9F721E0A6E3B1E0C0
:1000900001C01D92AE35B207E1F70E940D020C942B
:1000A0004B060C9400009091C00095FFFCCF80930C
:1000B000C60080E090E008958091C00087FFFCCFEB
:1000C0008091C60090E0089587E690E09093C50087
:1000D0008093C40088E18093C10086E08093C200D1
:1000E000089581EC80937C0083E080937E00EAE7B2
:1000F000F0E087E0808380818068808308951F928C
:100100000F920FB60F9211248F939F938091360117
:10011000909137018D39910580F0809100018160C7
:100120008093000110923701109236019F918F91B8
:100130000F900FBE0F901F901895809136019091EF
:100140003701019690933701809336019F918F91EB
:100150000F900FBE0F901F90189526E431E040E4F9
:1001600050E060E870E080E892E00E94220181E0C7
:1001700085BD80936E0016BC089580E480937C005A
:1001800080917A00806480937A0080917A0084FF65
:10019000FCCF80917A00806180937A0080917C000E
:1001A000816C80937C008091780090917900089513
:1001B00080917A00806480937A0080917A0084FF35
:1001C000FCCF80917A00806180937A0080917800E2
:1001D000909179000895009769F020E030E0EFE910
:1001E000FFE03197F1F700C000002F5F3F4F281765
:1001F0003907A9F7089597FD12C02D9A009769F065
:1002000020E030E0EFE9FFE03197F1F700C00000B7
:100210002F5F3F4F28173907A9F72D98089591951B
:100220008195910971F020E030E0EFE9FFE031972E
:10023000F1F700C000002F5F3F4F28173907A9F7DB
:1002400008950895CF93DF93FB01E9011A821B8281
:100250001C821D82198218829F838E83798768870A
:100260005B874A87BC016F5F7F4F8FEF9FE70E94DC
:10027000E2027D876C879F012F5F3F4F032E000CAA
:10028000440B550B6FEF7FEF8FEF9FE30E94F60259
:100290002E873F87488B598BDF91CF910895CF925E
:1002A000DF92EF92FF92CF93DF93EB01FA01AC0163
:1002B000461B570B84859585841795077CF091958F
:1002C00081959109481759070CF08EC0CC24C3942E
:1002D00030E8D32EEE24EA94FE2C06C0CC24CA9437
:1002E0006FE7D62EE12CF12C052E000C660B770B58
:1002F00082819381A481B5819A01AB01280F391FB6
:100300004A1F5B1F86859785A089B189821793074D
:10031000A407B5070CF04AC082839383A483B583F6
:100320006FEF7FEF8FEF9FE3208131812C1B3D0B1F
:10033000A285B3852A9FA0012B9F500D3A9F500D97
:100340001124D183C083DC01CB018C0D9D1DAE1D1A
:10035000BF1D052E000C660B770B840F951FA61F83
:10036000B71FB7FD4FC027E0B595A795979587951F
:100370002A95D1F7813020E892072FEFA207B20724
:1003800024F481E090E8AFEFBFEF811520E89207F9
:10039000A105B10524F08FEF9FE7A0E0B0E0DF9169
:1003A000CF91FF90EF90DF90CF900895B095A095FA
:1003B000909581959F4FAF4FBF4F281739074A0738
:1003C0005B074CF482839383A483B58361E070E080
:1003D00080E090ECA9CF2283338344835583A085AA
:1003E000B1850E941503A0CF86819781489F600147
:1003F000499FD00C589FD00C11240D2C000CEE08F6
:10040000FF0872CF81589F4FAF4FBF4FACCFFC0159
:100410001282138214821582089526E431E040E4AA
:1004200050E060E870E080E892E00E94220181E004
:1004300085BD80936E0016BC87E690E09093C50062
:100440008093C40088E18093C10086E08093C2005D
:1004500088E391E023E530E03093410120934001AF
:100460002CE530E0309343012093420123E02093B8
:100470003B01109245011092440190935D018093DD
:100480005C0190935B0180935A0190935901809392
:10049000580181EC80937C0020937E0087E080935C
:1004A0007A0080917A00806880937A00259A789407
:1004B00080E4B82E9AE0E92EF12C01E211E080915F
:1004C000000180FF67C080917A00806480937A0089
:1004D00080917A0084FFFCCF80917A0080618093C4
:1004E0007A00C0907800D0907900B0927C00809122
:1004F0007A00806480937A0090917A0094FFFCCF18
:1005000080917A00806180937A0080917C00816C78
:1005100080937C00809078009090790046E451E0D0
:10052000B601C4010E944F01EC01DF93CF93C401D7
:10053000845F9140B7010E94E2027F936F93C601EE
:10054000845F9140B7010E94E2027F936F931F93F3
:100550000F930E946D03EDB7FEB738960FB6F8946F
:10056000FEBF0FBEEDBFD7FD1CC02D9A209761F0D6
:1005700080E090E0EFE9FFE03197F1F700C0000084
:1005800001968C179D07B1F72D98809100018E7F01
:10059000809300018FE39CE90197F1F700C0000010
:1005A0008ECFD195C195D10981F380E090E0EFE93C
:1005B000FFE03197F1F700C0000001968C179D070E
:1005C000B1F7E3CF97FB072E16F4009407D077FD21
:1005D00009D00E941D0307FC05D03EF4909581953B
:1005E0009F4F0895709561957F4F0895052E97FB55
:1005F0001EF400940E940D0357FD07D00E943103A2
:1006000007FC03D04EF40C940D03509540953095A3
:1006100021953F4F4F4F5F4F08959095809570956E
:1006200061957F4F8F4F9F4F0895B7FF0C945303F1
:100630000E945303821B930B0895AA1BBB1B51E11D
:1006400007C0AA1FBB1FA617B70710F0A61BB70B42
:10065000881F991F5A95A9F780959095BC01CD01E7
:100660000895A1E21A2EAA1BBB1BFD010DC0AA1FF3
:10067000BB1FEE1FFF1FA217B307E407F50720F00B
:10068000A21BB30BE40BF50B661F771F881F991F86
:100690001A9469F760957095809590959B01AC01CF
:1006A000BD01CF0108950E945E03A59F900DB49FE8
:1006B000900DA49F800D911D11240895A29FB0015B
:1006C000B39FC001A39F700D811D1124911DB29F86
:1006D000700D811D1124911D0895A0E0B0E0E3E7A5
:1006E000F3E00C942406AE014B5F5F4FFA01619179
:1006F0007191AF0180915A0190915B010E94830337
:10070000E2E00C944006ABE0B0E0E9E8F3E00C94E2
:1007100014066C017B018A01FC0117821682838119
:1007200081FFCCC1CE0101963C01F6019381F70116
:1007300093FD859193FF81917F01882309F4BAC1CC
:10074000853239F493FD859193FF81917F01853244
:1007500029F4B60190E00E947A05E7CF912C212C74
:10076000312CFFE1F315D8F08B3279F038F4803278
:1007700079F08332A1F4232D20611DC08D3261F008
:10078000803369F4232D216016C0832D8260382EBA
:10079000E32DE4603E2E2AC0F32DF8601DC037FC27
:1007A0002DC020ED280F2A3040F08E32B9F436FCEF
:1007B00081C1232D2064322E19C036FE06C08AE086
:1007C000989E200D1124922E11C0EAE02E9E200D3D
:1007D0001124222EF32DF0623F2E08C08C3621F416
:1007E000832D8068382E02C0883641F4F70193FDCE
:1007F000859193FF81917F018111B3CF982F9F7DC8
:100800009554933028F40C5F1F4F9FE399830DC0DC
:10081000833631F0833771F0833509F059C021C038
:10082000F801808189830E5F1F4F88248394912C67
:10083000530113C02801F2E04F0E511CF801A080B3
:10084000B18036FE03C0692D70E002C06FEF7FEF0C
:10085000C5010E946F054C018201F32DFF773F2EE9
:1008600016C0280122E0420E511CF801A080B18080
:1008700036FE03C0692D70E002C06FEF7FEFC50147
:100880000E9464054C01F32DF0683F2E820133FC79
:100890001BC0822D90E088169906B0F4B60180E264
:1008A00090E00E947A052A94F4CFF50137FC8591F7
:1008B00037FE81915F01B60190E00E947A05211018
:1008C0002A9421E0821A91088114910471F7E8C0FA
:1008D000843611F0893641F5F80137FE07C0608192
:1008E0007181828193810C5F1F4F08C0608171818B
:1008F000072E000C880B990B0E5F1F4FF32DFF7610
:100900003F2E97FF09C090958095709561957F4F18
:100910008F4F9F4FF0683F2E2AE030E0A3010E94E6
:10092000B605882E861845C0853731F4232D2F7ED5
:10093000B22E2AE030E025C0932D997FB92E8F3654
:10094000C1F018F4883579F0B5C0803719F08837D0
:1009500021F0B0C0E92FE061BE2EB4FE0DC0FB2D2A
:10096000F460BF2E09C034FE0AC0292F2660B22EC3
:1009700006C028E030E005C020E130E002C020E100
:1009800032E0F801B7FE07C06081718182819381F6
:100990000C5F1F4F06C06081718180E090E00E5FA8
:1009A0001F4FA3010E94B605882E8618FB2DFF77E6
:1009B0003F2E36FE0DC0232D2E7FA22E891458F413
:1009C00034FE0BC032FC09C0832D8E7EA82E05C0DC
:1009D000B82CA32C03C0B82C01C0B92CA4FE0FC0A6
:1009E000FE01E80DF11D8081803321F49A2D997E5E
:1009F000A92E09C0A2FE06C0B394B39404C08A2DE8
:100A0000867809F0B394A3FC11C0A0FE06C0B2140E
:100A100088F4280C922C9B180EC0B21460F4B60116
:100A200080E290E00E947A05B394F7CFB21418F4F4
:100A30002B1802C0982C212CA4FE10C0B60180E314
:100A400090E00E947A05A2FE17C0A1FC03C088E7CF
:100A500090E002C088E590E0B6010CC08A2D86784F
:100A600059F0A1FE02C08BE201C080E2A7FC8DE23A
:100A7000B60190E00E947A05891438F4B60180E34B
:100A800090E00E947A059A94F7CF8A94F301E80DDA
:100A9000F11D8081B60190E00E947A058110F5CFAA
:100AA000222009F442CEB60180E290E00E947A054D
:100AB0002A94F6CFF6018681978102C08FEF9FEFCF
:100AC0002B96E2E10C943006FC01059061507040D9
:100AD0000110D8F7809590958E0F9F1F0895FC0107
:100AE0006150704001900110D8F7809590958E0F5D
:100AF0009F1F08950F931F93CF93DF93FB012381D3
:100B000021FD03C08FEF9FEF2CC022FF16C046814E
:100B10005781248135814217530744F4A081B18164
:100B20009D012F5F3F4F318320838C932681378136
:100B30002F5F3F4F3783268314C08B01EC01FB01ED
:100B40000084F185E02D0995892BE1F6D8011696F0
:100B50008D919C911797019617969C938E9316975B
:100B6000CE01DF91CF911F910F910895FA01AA272D
:100B7000283051F1203181F1E8946F936E7F6E5FE0
:100B80007F4F8F4F9F4FAF4FB1E03ED0B4E03CD08E
:100B9000670F781F891F9A1FA11D680F791F8A1F71
:100BA000911DA11D6A0F711D811D911DA11D20D0D8
:100BB00009F468943F912AE0269F11243019305D92
:100BC0003193DEF6CF010895462F4770405D419383
:100BD000B3E00FD0C9F7F6CF462F4F70405D4A33D0
:100BE00018F0495D31FD4052419302D0A9F7EACF98
:100BF000B4E0A6959795879577956795BA95C9F7C7
:100C000000976105710508959B01AC010A2E0694B9
:100C10005795479537952795BA95C9F7620F731F72
:100C2000841F951FA01D08952F923F924F925F92AF
:100C30006F927F928F929F92AF92BF92CF92DF92EC
:100C4000EF92FF920F931F93CF93DF93CDB7DEB751
:100C5000CA1BDB0B0FB6F894DEBF0FBECDBF0994E5
:100C60002A88398848885F846E847D848C849B843C
:100C7000AA84B984C884DF80EE80FD800C811B814A
:100C8000AA81B981CE0FD11D0FB6F894DEBF0FBE79
:0A0C9000CDBFED010895F894FFCFE9
:100C9A000F1200130014001500160017001800198F
:100CAA00001A001B001C001D001E001F002000214E
:100CBA00002564202D3E2025642020205049443AF6
:060CCA002025640D0A0064
:00000001FF
