:100000000C9434000C943E000C943E000C943E0082
:100010000C943E000C943E000C943E000C943E0068
:100020000C943E000C943E000C943E000C943E0058
:100030000C943E000C943E000C943E000C943E0048
:100040000C943E000C943E000C943E000C943E0038
:100050000C943E000C943E000C943E000C943E0028
:100060000C943E000C943E0011241FBECFEFD8E04C
:10007000DEBFCDBF0E9440000C9488000C940000AD
:10008000CF93DF93CDB7DEB7C456D1090FB6F8943E
:10009000DEBF0FBECDBF14B82C9A259AAE014F5FBC
:1000A0005F4F84E6DA011D928A95E9F780E090E0DF
:1000B00031E0FA01E80FF91F2081211117C02D98B6
:1000C000FA01E80FF91F1082AFE3BCE91197F1F7CD
:1000D00000C000001C9B12C08336910564F4019699
:1000E000FA01E80FF91F2081222349F32D9A20817C
:1000F0002111E6CFE4CF80E090E0DBCFAFE9BFE0B5
:100100001197F1F700C000001C99E6CF3083E4CFCF
:04011000F894FFCF91
:00000001FF
